{
	"contracts/1_remote smart contract .sol": {
		"PurchaseAggreement": {
			"abi": [
				{
					"inputs": [],
					"stateMutability": "payable",
					"type": "constructor"
				},
				{
					"inputs": [],
					"name": "InvalidState",
					"type": "error"
				},
				{
					"inputs": [],
					"name": "buyer",
					"outputs": [
						{
							"internalType": "address payable",
							"name": "",
							"type": "address"
						}
					],
					"stateMutability": "view",
					"type": "function"
				},
				{
					"inputs": [],
					"name": "confirmPurchase",
					"outputs": [],
					"stateMutability": "payable",
					"type": "function"
				},
				{
					"inputs": [],
					"name": "seller",
					"outputs": [
						{
							"internalType": "address payable",
							"name": "",
							"type": "address"
						}
					],
					"stateMutability": "view",
					"type": "function"
				},
				{
					"inputs": [],
					"name": "state",
					"outputs": [
						{
							"internalType": "enum PurchaseAggreement.State",
							"name": "",
							"type": "uint8"
						}
					],
					"stateMutability": "view",
					"type": "function"
				},
				{
					"inputs": [],
					"name": "value",
					"outputs": [
						{
							"internalType": "uint256",
							"name": "",
							"type": "uint256"
						}
					],
					"stateMutability": "view",
					"type": "function"
				}
			],
			"devdoc": {
				"kind": "dev",
				"methods": {},
				"version": 1
			},
			"evm": {
				"assembly": "    /* \"contracts/1_remote smart contract .sol\":67:833  contract PurchaseAggreement{... */\n  mstore(0x40, 0x80)\n    /* \"contracts/1_remote smart contract .sol\":326:336  msg.sender */\n  caller\n    /* \"contracts/1_remote smart contract .sol\":308:314  seller */\n  0x01\n  0x00\n    /* \"contracts/1_remote smart contract .sol\":308:337  seller  = payable(msg.sender) */\n  0x0100\n  exp\n  dup2\n  sload\n  dup2\n  0xffffffffffffffffffffffffffffffffffffffff\n  mul\n  not\n  and\n  swap1\n  dup4\n  0xffffffffffffffffffffffffffffffffffffffff\n  and\n  mul\n  or\n  swap1\n  sstore\n  pop\n    /* \"contracts/1_remote smart contract .sol\":67:833  contract PurchaseAggreement{... */\n  dataSize(sub_0)\n  dup1\n  dataOffset(sub_0)\n  0x00\n  codecopy\n  0x00\n  return\nstop\n\nsub_0: assembly {\n        /* \"contracts/1_remote smart contract .sol\":67:833  contract PurchaseAggreement{... */\n      mstore(0x40, 0x80)\n      jumpi(tag_1, lt(calldatasize, 0x04))\n      shr(0xe0, calldataload(0x00))\n      dup1\n      0x08551a53\n      eq\n      tag_2\n      jumpi\n      dup1\n      0x3fa4f245\n      eq\n      tag_3\n      jumpi\n      dup1\n      0x7150d8ae\n      eq\n      tag_4\n      jumpi\n      dup1\n      0xc19d93fb\n      eq\n      tag_5\n      jumpi\n      dup1\n      0xd6960697\n      eq\n      tag_6\n      jumpi\n    tag_1:\n      0x00\n      dup1\n      revert\n        /* \"contracts/1_remote smart contract .sol\":123:152  address payable public seller */\n    tag_2:\n      callvalue\n      dup1\n      iszero\n      tag_7\n      jumpi\n      0x00\n      dup1\n      revert\n    tag_7:\n      pop\n      tag_8\n      tag_9\n      jump\t// in\n    tag_8:\n      mload(0x40)\n      tag_10\n      swap2\n      swap1\n      tag_11\n      jump\t// in\n    tag_10:\n      mload(0x40)\n      dup1\n      swap2\n      sub\n      swap1\n      return\n        /* \"contracts/1_remote smart contract .sol\":100:117  uint public value */\n    tag_3:\n      callvalue\n      dup1\n      iszero\n      tag_12\n      jumpi\n      0x00\n      dup1\n      revert\n    tag_12:\n      pop\n      tag_13\n      tag_14\n      jump\t// in\n    tag_13:\n      mload(0x40)\n      tag_15\n      swap2\n      swap1\n      tag_16\n      jump\t// in\n    tag_15:\n      mload(0x40)\n      dup1\n      swap2\n      sub\n      swap1\n      return\n        /* \"contracts/1_remote smart contract .sol\":158:186  address payable public buyer */\n    tag_4:\n      callvalue\n      dup1\n      iszero\n      tag_17\n      jumpi\n      0x00\n      dup1\n      revert\n    tag_17:\n      pop\n      tag_18\n      tag_19\n      jump\t// in\n    tag_18:\n      mload(0x40)\n      tag_20\n      swap2\n      swap1\n      tag_11\n      jump\t// in\n    tag_20:\n      mload(0x40)\n      dup1\n      swap2\n      sub\n      swap1\n      return\n        /* \"contracts/1_remote smart contract .sol\":252:270  State public state */\n    tag_5:\n      callvalue\n      dup1\n      iszero\n      tag_21\n      jumpi\n      0x00\n      dup1\n      revert\n    tag_21:\n      pop\n      tag_22\n      tag_23\n      jump\t// in\n    tag_22:\n      mload(0x40)\n      tag_24\n      swap2\n      swap1\n      tag_25\n      jump\t// in\n    tag_24:\n      mload(0x40)\n      dup1\n      swap2\n      sub\n      swap1\n      return\n        /* \"contracts/1_remote smart contract .sol\":596:831  function  confirmPurchase() external inState(State.Created) payable {... */\n    tag_6:\n      tag_26\n      tag_27\n      jump\t// in\n    tag_26:\n      stop\n        /* \"contracts/1_remote smart contract .sol\":123:152  address payable public seller */\n    tag_9:\n      0x01\n      0x00\n      swap1\n      sload\n      swap1\n      0x0100\n      exp\n      swap1\n      div\n      0xffffffffffffffffffffffffffffffffffffffff\n      and\n      dup2\n      jump\t// out\n        /* \"contracts/1_remote smart contract .sol\":100:117  uint public value */\n    tag_14:\n      sload(0x00)\n      dup2\n      jump\t// out\n        /* \"contracts/1_remote smart contract .sol\":158:186  address payable public buyer */\n    tag_19:\n      0x02\n      0x00\n      swap1\n      sload\n      swap1\n      0x0100\n      exp\n      swap1\n      div\n      0xffffffffffffffffffffffffffffffffffffffff\n      and\n      dup2\n      jump\t// out\n        /* \"contracts/1_remote smart contract .sol\":252:270  State public state */\n    tag_23:\n      0x02\n      0x14\n      swap1\n      sload\n      swap1\n      0x0100\n      exp\n      swap1\n      div\n      0xff\n      and\n      dup2\n      jump\t// out\n        /* \"contracts/1_remote smart contract .sol\":596:831  function  confirmPurchase() external inState(State.Created) payable {... */\n    tag_27:\n        /* \"contracts/1_remote smart contract .sol\":641:654  State.Created */\n      0x00\n        /* \"contracts/1_remote smart contract .sol\":518:524  state_ */\n      dup1\n        /* \"contracts/1_remote smart contract .sol\":510:524  state!= state_ */\n      0x03\n      dup2\n      gt\n      iszero\n      tag_29\n      jumpi\n      tag_30\n      tag_31\n      jump\t// in\n    tag_30:\n    tag_29:\n        /* \"contracts/1_remote smart contract .sol\":510:515  state */\n      0x02\n      0x14\n      swap1\n      sload\n      swap1\n      0x0100\n      exp\n      swap1\n      div\n      0xff\n      and\n        /* \"contracts/1_remote smart contract .sol\":510:524  state!= state_ */\n      0x03\n      dup2\n      gt\n      iszero\n      tag_32\n      jumpi\n      tag_33\n      tag_31\n      jump\t// in\n    tag_33:\n    tag_32:\n      eq\n        /* \"contracts/1_remote smart contract .sol\":507:572  if(state!= state_){... */\n      tag_34\n      jumpi\n        /* \"contracts/1_remote smart contract .sol\":547:561  InvalidState() */\n      mload(0x40)\n      0xbaf3f0f700000000000000000000000000000000000000000000000000000000\n      dup2\n      mstore\n      0x04\n      add\n      mload(0x40)\n      dup1\n      swap2\n      sub\n      swap1\n      revert\n        /* \"contracts/1_remote smart contract .sol\":507:572  if(state!= state_){... */\n    tag_34:\n        /* \"contracts/1_remote smart contract .sol\":699:704  value */\n      sload(0x00)\n        /* \"contracts/1_remote smart contract .sol\":696:697  2 */\n      0x02\n        /* \"contracts/1_remote smart contract .sol\":696:704  2 *value */\n      tag_36\n      swap2\n      swap1\n      tag_37\n      jump\t// in\n    tag_36:\n        /* \"contracts/1_remote smart contract .sol\":682:691  msg.value */\n      callvalue\n        /* \"contracts/1_remote smart contract .sol\":682:705  msg.value == (2 *value) */\n      eq\n        /* \"contracts/1_remote smart contract .sol\":674:748  require(msg.value == (2 *value),\"Please send in 2x the purchase amount \" ) */\n      tag_38\n      jumpi\n      mload(0x40)\n      0x08c379a000000000000000000000000000000000000000000000000000000000\n      dup2\n      mstore\n      0x04\n      add\n      tag_39\n      swap1\n      tag_40\n      jump\t// in\n    tag_39:\n      mload(0x40)\n      dup1\n      swap2\n      sub\n      swap1\n      revert\n    tag_38:\n        /* \"contracts/1_remote smart contract .sol\":775:785  msg.sender */\n      caller\n        /* \"contracts/1_remote smart contract .sol\":759:764  buyer */\n      0x02\n      0x00\n        /* \"contracts/1_remote smart contract .sol\":759:786  buyer = payable(msg.sender) */\n      0x0100\n      exp\n      dup2\n      sload\n      dup2\n      0xffffffffffffffffffffffffffffffffffffffff\n      mul\n      not\n      and\n      swap1\n      dup4\n      0xffffffffffffffffffffffffffffffffffffffff\n      and\n      mul\n      or\n      swap1\n      sstore\n      pop\n        /* \"contracts/1_remote smart contract .sol\":804:816  State.Locked */\n      0x01\n        /* \"contracts/1_remote smart contract .sol\":796:801  state */\n      0x02\n      0x14\n        /* \"contracts/1_remote smart contract .sol\":796:816  state = State.Locked */\n      0x0100\n      exp\n      dup2\n      sload\n      dup2\n      0xff\n      mul\n      not\n      and\n      swap1\n      dup4\n      0x03\n      dup2\n      gt\n      iszero\n      tag_41\n      jumpi\n      tag_42\n      tag_31\n      jump\t// in\n    tag_42:\n    tag_41:\n      mul\n      or\n      swap1\n      sstore\n      pop\n        /* \"contracts/1_remote smart contract .sol\":596:831  function  confirmPurchase() external inState(State.Created) payable {... */\n      pop\n      jump\t// out\n        /* \"#utility.yul\":7:133   */\n    tag_43:\n        /* \"#utility.yul\":44:51   */\n      0x00\n        /* \"#utility.yul\":84:126   */\n      0xffffffffffffffffffffffffffffffffffffffff\n        /* \"#utility.yul\":77:82   */\n      dup3\n        /* \"#utility.yul\":73:127   */\n      and\n        /* \"#utility.yul\":62:127   */\n      swap1\n      pop\n        /* \"#utility.yul\":7:133   */\n      swap2\n      swap1\n      pop\n      jump\t// out\n        /* \"#utility.yul\":139:243   */\n    tag_44:\n        /* \"#utility.yul\":184:191   */\n      0x00\n        /* \"#utility.yul\":213:237   */\n      tag_59\n        /* \"#utility.yul\":231:236   */\n      dup3\n        /* \"#utility.yul\":213:237   */\n      tag_43\n      jump\t// in\n    tag_59:\n        /* \"#utility.yul\":202:237   */\n      swap1\n      pop\n        /* \"#utility.yul\":139:243   */\n      swap2\n      swap1\n      pop\n      jump\t// out\n        /* \"#utility.yul\":249:391   */\n    tag_45:\n        /* \"#utility.yul\":352:384   */\n      tag_61\n        /* \"#utility.yul\":378:383   */\n      dup2\n        /* \"#utility.yul\":352:384   */\n      tag_44\n      jump\t// in\n    tag_61:\n        /* \"#utility.yul\":347:350   */\n      dup3\n        /* \"#utility.yul\":340:385   */\n      mstore\n        /* \"#utility.yul\":249:391   */\n      pop\n      pop\n      jump\t// out\n        /* \"#utility.yul\":397:651   */\n    tag_11:\n        /* \"#utility.yul\":506:510   */\n      0x00\n        /* \"#utility.yul\":544:546   */\n      0x20\n        /* \"#utility.yul\":533:542   */\n      dup3\n        /* \"#utility.yul\":529:547   */\n      add\n        /* \"#utility.yul\":521:547   */\n      swap1\n      pop\n        /* \"#utility.yul\":557:644   */\n      tag_63\n        /* \"#utility.yul\":641:642   */\n      0x00\n        /* \"#utility.yul\":630:639   */\n      dup4\n        /* \"#utility.yul\":626:643   */\n      add\n        /* \"#utility.yul\":617:623   */\n      dup5\n        /* \"#utility.yul\":557:644   */\n      tag_45\n      jump\t// in\n    tag_63:\n        /* \"#utility.yul\":397:651   */\n      swap3\n      swap2\n      pop\n      pop\n      jump\t// out\n        /* \"#utility.yul\":657:734   */\n    tag_46:\n        /* \"#utility.yul\":694:701   */\n      0x00\n        /* \"#utility.yul\":723:728   */\n      dup2\n        /* \"#utility.yul\":712:728   */\n      swap1\n      pop\n        /* \"#utility.yul\":657:734   */\n      swap2\n      swap1\n      pop\n      jump\t// out\n        /* \"#utility.yul\":740:858   */\n    tag_47:\n        /* \"#utility.yul\":827:851   */\n      tag_66\n        /* \"#utility.yul\":845:850   */\n      dup2\n        /* \"#utility.yul\":827:851   */\n      tag_46\n      jump\t// in\n    tag_66:\n        /* \"#utility.yul\":822:825   */\n      dup3\n        /* \"#utility.yul\":815:852   */\n      mstore\n        /* \"#utility.yul\":740:858   */\n      pop\n      pop\n      jump\t// out\n        /* \"#utility.yul\":864:1086   */\n    tag_16:\n        /* \"#utility.yul\":957:961   */\n      0x00\n        /* \"#utility.yul\":995:997   */\n      0x20\n        /* \"#utility.yul\":984:993   */\n      dup3\n        /* \"#utility.yul\":980:998   */\n      add\n        /* \"#utility.yul\":972:998   */\n      swap1\n      pop\n        /* \"#utility.yul\":1008:1079   */\n      tag_68\n        /* \"#utility.yul\":1076:1077   */\n      0x00\n        /* \"#utility.yul\":1065:1074   */\n      dup4\n        /* \"#utility.yul\":1061:1078   */\n      add\n        /* \"#utility.yul\":1052:1058   */\n      dup5\n        /* \"#utility.yul\":1008:1079   */\n      tag_47\n      jump\t// in\n    tag_68:\n        /* \"#utility.yul\":864:1086   */\n      swap3\n      swap2\n      pop\n      pop\n      jump\t// out\n        /* \"#utility.yul\":1092:1272   */\n    tag_31:\n        /* \"#utility.yul\":1140:1217   */\n      0x4e487b7100000000000000000000000000000000000000000000000000000000\n        /* \"#utility.yul\":1137:1138   */\n      0x00\n        /* \"#utility.yul\":1130:1218   */\n      mstore\n        /* \"#utility.yul\":1237:1241   */\n      0x21\n        /* \"#utility.yul\":1234:1235   */\n      0x04\n        /* \"#utility.yul\":1227:1242   */\n      mstore\n        /* \"#utility.yul\":1261:1265   */\n      0x24\n        /* \"#utility.yul\":1258:1259   */\n      0x00\n        /* \"#utility.yul\":1251:1266   */\n      revert\n        /* \"#utility.yul\":1278:1391   */\n    tag_48:\n        /* \"#utility.yul\":1359:1360   */\n      0x04\n        /* \"#utility.yul\":1352:1357   */\n      dup2\n        /* \"#utility.yul\":1349:1361   */\n      lt\n        /* \"#utility.yul\":1339:1385   */\n      tag_71\n      jumpi\n        /* \"#utility.yul\":1365:1383   */\n      tag_72\n      tag_31\n      jump\t// in\n    tag_72:\n        /* \"#utility.yul\":1339:1385   */\n    tag_71:\n        /* \"#utility.yul\":1278:1391   */\n      pop\n      jump\t// out\n        /* \"#utility.yul\":1397:1524   */\n    tag_49:\n        /* \"#utility.yul\":1442:1449   */\n      0x00\n        /* \"#utility.yul\":1471:1476   */\n      dup2\n        /* \"#utility.yul\":1460:1476   */\n      swap1\n      pop\n        /* \"#utility.yul\":1477:1518   */\n      tag_74\n        /* \"#utility.yul\":1512:1517   */\n      dup3\n        /* \"#utility.yul\":1477:1518   */\n      tag_48\n      jump\t// in\n    tag_74:\n        /* \"#utility.yul\":1397:1524   */\n      swap2\n      swap1\n      pop\n      jump\t// out\n        /* \"#utility.yul\":1530:1657   */\n    tag_50:\n        /* \"#utility.yul\":1586:1595   */\n      0x00\n        /* \"#utility.yul\":1619:1651   */\n      tag_76\n        /* \"#utility.yul\":1645:1650   */\n      dup3\n        /* \"#utility.yul\":1619:1651   */\n      tag_49\n      jump\t// in\n    tag_76:\n        /* \"#utility.yul\":1606:1651   */\n      swap1\n      pop\n        /* \"#utility.yul\":1530:1657   */\n      swap2\n      swap1\n      pop\n      jump\t// out\n        /* \"#utility.yul\":1663:1806   */\n    tag_51:\n        /* \"#utility.yul\":1756:1799   */\n      tag_78\n        /* \"#utility.yul\":1793:1798   */\n      dup2\n        /* \"#utility.yul\":1756:1799   */\n      tag_50\n      jump\t// in\n    tag_78:\n        /* \"#utility.yul\":1751:1754   */\n      dup3\n        /* \"#utility.yul\":1744:1800   */\n      mstore\n        /* \"#utility.yul\":1663:1806   */\n      pop\n      pop\n      jump\t// out\n        /* \"#utility.yul\":1812:2046   */\n    tag_25:\n        /* \"#utility.yul\":1911:1915   */\n      0x00\n        /* \"#utility.yul\":1949:1951   */\n      0x20\n        /* \"#utility.yul\":1938:1947   */\n      dup3\n        /* \"#utility.yul\":1934:1952   */\n      add\n        /* \"#utility.yul\":1926:1952   */\n      swap1\n      pop\n        /* \"#utility.yul\":1962:2039   */\n      tag_80\n        /* \"#utility.yul\":2036:2037   */\n      0x00\n        /* \"#utility.yul\":2025:2034   */\n      dup4\n        /* \"#utility.yul\":2021:2038   */\n      add\n        /* \"#utility.yul\":2012:2018   */\n      dup5\n        /* \"#utility.yul\":1962:2039   */\n      tag_51\n      jump\t// in\n    tag_80:\n        /* \"#utility.yul\":1812:2046   */\n      swap3\n      swap2\n      pop\n      pop\n      jump\t// out\n        /* \"#utility.yul\":2052:2232   */\n    tag_52:\n        /* \"#utility.yul\":2100:2177   */\n      0x4e487b7100000000000000000000000000000000000000000000000000000000\n        /* \"#utility.yul\":2097:2098   */\n      0x00\n        /* \"#utility.yul\":2090:2178   */\n      mstore\n        /* \"#utility.yul\":2197:2201   */\n      0x11\n        /* \"#utility.yul\":2194:2195   */\n      0x04\n        /* \"#utility.yul\":2187:2202   */\n      mstore\n        /* \"#utility.yul\":2221:2225   */\n      0x24\n        /* \"#utility.yul\":2218:2219   */\n      0x00\n        /* \"#utility.yul\":2211:2226   */\n      revert\n        /* \"#utility.yul\":2238:2586   */\n    tag_37:\n        /* \"#utility.yul\":2278:2285   */\n      0x00\n        /* \"#utility.yul\":2301:2321   */\n      tag_83\n        /* \"#utility.yul\":2319:2320   */\n      dup3\n        /* \"#utility.yul\":2301:2321   */\n      tag_46\n      jump\t// in\n    tag_83:\n        /* \"#utility.yul\":2296:2321   */\n      swap2\n      pop\n        /* \"#utility.yul\":2335:2355   */\n      tag_84\n        /* \"#utility.yul\":2353:2354   */\n      dup4\n        /* \"#utility.yul\":2335:2355   */\n      tag_46\n      jump\t// in\n    tag_84:\n        /* \"#utility.yul\":2330:2355   */\n      swap3\n      pop\n        /* \"#utility.yul\":2523:2524   */\n      dup2\n        /* \"#utility.yul\":2455:2521   */\n      0xffffffffffffffffffffffffffffffffffffffffffffffffffffffffffffffff\n        /* \"#utility.yul\":2451:2525   */\n      div\n        /* \"#utility.yul\":2448:2449   */\n      dup4\n        /* \"#utility.yul\":2445:2526   */\n      gt\n        /* \"#utility.yul\":2440:2441   */\n      dup3\n        /* \"#utility.yul\":2433:2442   */\n      iszero\n        /* \"#utility.yul\":2426:2443   */\n      iszero\n        /* \"#utility.yul\":2422:2527   */\n      and\n        /* \"#utility.yul\":2419:2550   */\n      iszero\n      tag_85\n      jumpi\n        /* \"#utility.yul\":2530:2548   */\n      tag_86\n      tag_52\n      jump\t// in\n    tag_86:\n        /* \"#utility.yul\":2419:2550   */\n    tag_85:\n        /* \"#utility.yul\":2578:2579   */\n      dup3\n        /* \"#utility.yul\":2575:2576   */\n      dup3\n        /* \"#utility.yul\":2571:2580   */\n      mul\n        /* \"#utility.yul\":2560:2580   */\n      swap1\n      pop\n        /* \"#utility.yul\":2238:2586   */\n      swap3\n      swap2\n      pop\n      pop\n      jump\t// out\n        /* \"#utility.yul\":2592:2761   */\n    tag_53:\n        /* \"#utility.yul\":2676:2687   */\n      0x00\n        /* \"#utility.yul\":2710:2716   */\n      dup3\n        /* \"#utility.yul\":2705:2708   */\n      dup3\n        /* \"#utility.yul\":2698:2717   */\n      mstore\n        /* \"#utility.yul\":2750:2754   */\n      0x20\n        /* \"#utility.yul\":2745:2748   */\n      dup3\n        /* \"#utility.yul\":2741:2755   */\n      add\n        /* \"#utility.yul\":2726:2755   */\n      swap1\n      pop\n        /* \"#utility.yul\":2592:2761   */\n      swap3\n      swap2\n      pop\n      pop\n      jump\t// out\n        /* \"#utility.yul\":2767:2992   */\n    tag_54:\n        /* \"#utility.yul\":2907:2941   */\n      0x506c656173652073656e6420696e203278207468652070757263686173652061\n        /* \"#utility.yul\":2903:2904   */\n      0x00\n        /* \"#utility.yul\":2895:2901   */\n      dup3\n        /* \"#utility.yul\":2891:2905   */\n      add\n        /* \"#utility.yul\":2884:2942   */\n      mstore\n        /* \"#utility.yul\":2976:2984   */\n      0x6d6f756e74200000000000000000000000000000000000000000000000000000\n        /* \"#utility.yul\":2971:2973   */\n      0x20\n        /* \"#utility.yul\":2963:2969   */\n      dup3\n        /* \"#utility.yul\":2959:2974   */\n      add\n        /* \"#utility.yul\":2952:2985   */\n      mstore\n        /* \"#utility.yul\":2767:2992   */\n      pop\n      jump\t// out\n        /* \"#utility.yul\":2998:3364   */\n    tag_55:\n        /* \"#utility.yul\":3140:3143   */\n      0x00\n        /* \"#utility.yul\":3161:3228   */\n      tag_90\n        /* \"#utility.yul\":3225:3227   */\n      0x26\n        /* \"#utility.yul\":3220:3223   */\n      dup4\n        /* \"#utility.yul\":3161:3228   */\n      tag_53\n      jump\t// in\n    tag_90:\n        /* \"#utility.yul\":3154:3228   */\n      swap2\n      pop\n        /* \"#utility.yul\":3237:3330   */\n      tag_91\n        /* \"#utility.yul\":3326:3329   */\n      dup3\n        /* \"#utility.yul\":3237:3330   */\n      tag_54\n      jump\t// in\n    tag_91:\n        /* \"#utility.yul\":3355:3357   */\n      0x40\n        /* \"#utility.yul\":3350:3353   */\n      dup3\n        /* \"#utility.yul\":3346:3358   */\n      add\n        /* \"#utility.yul\":3339:3358   */\n      swap1\n      pop\n        /* \"#utility.yul\":2998:3364   */\n      swap2\n      swap1\n      pop\n      jump\t// out\n        /* \"#utility.yul\":3370:3789   */\n    tag_40:\n        /* \"#utility.yul\":3536:3540   */\n      0x00\n        /* \"#utility.yul\":3574:3576   */\n      0x20\n        /* \"#utility.yul\":3563:3572   */\n      dup3\n        /* \"#utility.yul\":3559:3577   */\n      add\n        /* \"#utility.yul\":3551:3577   */\n      swap1\n      pop\n        /* \"#utility.yul\":3623:3632   */\n      dup2\n        /* \"#utility.yul\":3617:3621   */\n      dup2\n        /* \"#utility.yul\":3613:3633   */\n      sub\n        /* \"#utility.yul\":3609:3610   */\n      0x00\n        /* \"#utility.yul\":3598:3607   */\n      dup4\n        /* \"#utility.yul\":3594:3611   */\n      add\n        /* \"#utility.yul\":3587:3634   */\n      mstore\n        /* \"#utility.yul\":3651:3782   */\n      tag_93\n        /* \"#utility.yul\":3777:3781   */\n      dup2\n        /* \"#utility.yul\":3651:3782   */\n      tag_55\n      jump\t// in\n    tag_93:\n        /* \"#utility.yul\":3643:3782   */\n      swap1\n      pop\n        /* \"#utility.yul\":3370:3789   */\n      swap2\n      swap1\n      pop\n      jump\t// out\n\n    auxdata: 0xa2646970667358221220716422bf6a7b7bf3b3b6eebd88b3301f91cef139f746c256f060e71d8f8dee4e64736f6c634300080f0033\n}\n",
				"bytecode": {
					"linkReferences": {},
					"object": "608060405233600160006101000a81548173ffffffffffffffffffffffffffffffffffffffff021916908373ffffffffffffffffffffffffffffffffffffffff16021790555061051b806100546000396000f3fe60806040526004361061004a5760003560e01c806308551a531461004f5780633fa4f2451461007a5780637150d8ae146100a5578063c19d93fb146100d0578063d6960697146100fb575b600080fd5b34801561005b57600080fd5b50610064610105565b60405161007191906102d8565b60405180910390f35b34801561008657600080fd5b5061008f61012b565b60405161009c919061030c565b60405180910390f35b3480156100b157600080fd5b506100ba610131565b6040516100c791906102d8565b60405180910390f35b3480156100dc57600080fd5b506100e5610157565b6040516100f2919061039e565b60405180910390f35b61010361016a565b005b600160009054906101000a900473ffffffffffffffffffffffffffffffffffffffff1681565b60005481565b600260009054906101000a900473ffffffffffffffffffffffffffffffffffffffff1681565b600260149054906101000a900460ff1681565b600080600381111561017f5761017e610327565b5b600260149054906101000a900460ff1660038111156101a1576101a0610327565b5b146101d8576040517fbaf3f0f700000000000000000000000000000000000000000000000000000000815260040160405180910390fd5b60005460026101e791906103e8565b3414610228576040517f08c379a000000000000000000000000000000000000000000000000000000000815260040161021f906104c5565b60405180910390fd5b33600260006101000a81548173ffffffffffffffffffffffffffffffffffffffff021916908373ffffffffffffffffffffffffffffffffffffffff1602179055506001600260146101000a81548160ff0219169083600381111561028f5761028e610327565b5b021790555050565b600073ffffffffffffffffffffffffffffffffffffffff82169050919050565b60006102c282610297565b9050919050565b6102d2816102b7565b82525050565b60006020820190506102ed60008301846102c9565b92915050565b6000819050919050565b610306816102f3565b82525050565b600060208201905061032160008301846102fd565b92915050565b7f4e487b7100000000000000000000000000000000000000000000000000000000600052602160045260246000fd5b6004811061036757610366610327565b5b50565b600081905061037882610356565b919050565b60006103888261036a565b9050919050565b6103988161037d565b82525050565b60006020820190506103b3600083018461038f565b92915050565b7f4e487b7100000000000000000000000000000000000000000000000000000000600052601160045260246000fd5b60006103f3826102f3565b91506103fe836102f3565b9250817fffffffffffffffffffffffffffffffffffffffffffffffffffffffffffffffff0483118215151615610437576104366103b9565b5b828202905092915050565b600082825260208201905092915050565b7f506c656173652073656e6420696e20327820746865207075726368617365206160008201527f6d6f756e74200000000000000000000000000000000000000000000000000000602082015250565b60006104af602683610442565b91506104ba82610453565b604082019050919050565b600060208201905081810360008301526104de816104a2565b905091905056fea2646970667358221220716422bf6a7b7bf3b3b6eebd88b3301f91cef139f746c256f060e71d8f8dee4e64736f6c634300080f0033",
					"opcodes": "PUSH1 0x80 PUSH1 0x40 MSTORE CALLER PUSH1 0x1 PUSH1 0x0 PUSH2 0x100 EXP DUP2 SLOAD DUP2 PUSH20 0xFFFFFFFFFFFFFFFFFFFFFFFFFFFFFFFFFFFFFFFF MUL NOT AND SWAP1 DUP4 PUSH20 0xFFFFFFFFFFFFFFFFFFFFFFFFFFFFFFFFFFFFFFFF AND MUL OR SWAP1 SSTORE POP PUSH2 0x51B DUP1 PUSH2 0x54 PUSH1 0x0 CODECOPY PUSH1 0x0 RETURN INVALID PUSH1 0x80 PUSH1 0x40 MSTORE PUSH1 0x4 CALLDATASIZE LT PUSH2 0x4A JUMPI PUSH1 0x0 CALLDATALOAD PUSH1 0xE0 SHR DUP1 PUSH4 0x8551A53 EQ PUSH2 0x4F JUMPI DUP1 PUSH4 0x3FA4F245 EQ PUSH2 0x7A JUMPI DUP1 PUSH4 0x7150D8AE EQ PUSH2 0xA5 JUMPI DUP1 PUSH4 0xC19D93FB EQ PUSH2 0xD0 JUMPI DUP1 PUSH4 0xD6960697 EQ PUSH2 0xFB JUMPI JUMPDEST PUSH1 0x0 DUP1 REVERT JUMPDEST CALLVALUE DUP1 ISZERO PUSH2 0x5B JUMPI PUSH1 0x0 DUP1 REVERT JUMPDEST POP PUSH2 0x64 PUSH2 0x105 JUMP JUMPDEST PUSH1 0x40 MLOAD PUSH2 0x71 SWAP2 SWAP1 PUSH2 0x2D8 JUMP JUMPDEST PUSH1 0x40 MLOAD DUP1 SWAP2 SUB SWAP1 RETURN JUMPDEST CALLVALUE DUP1 ISZERO PUSH2 0x86 JUMPI PUSH1 0x0 DUP1 REVERT JUMPDEST POP PUSH2 0x8F PUSH2 0x12B JUMP JUMPDEST PUSH1 0x40 MLOAD PUSH2 0x9C SWAP2 SWAP1 PUSH2 0x30C JUMP JUMPDEST PUSH1 0x40 MLOAD DUP1 SWAP2 SUB SWAP1 RETURN JUMPDEST CALLVALUE DUP1 ISZERO PUSH2 0xB1 JUMPI PUSH1 0x0 DUP1 REVERT JUMPDEST POP PUSH2 0xBA PUSH2 0x131 JUMP JUMPDEST PUSH1 0x40 MLOAD PUSH2 0xC7 SWAP2 SWAP1 PUSH2 0x2D8 JUMP JUMPDEST PUSH1 0x40 MLOAD DUP1 SWAP2 SUB SWAP1 RETURN JUMPDEST CALLVALUE DUP1 ISZERO PUSH2 0xDC JUMPI PUSH1 0x0 DUP1 REVERT JUMPDEST POP PUSH2 0xE5 PUSH2 0x157 JUMP JUMPDEST PUSH1 0x40 MLOAD PUSH2 0xF2 SWAP2 SWAP1 PUSH2 0x39E JUMP JUMPDEST PUSH1 0x40 MLOAD DUP1 SWAP2 SUB SWAP1 RETURN JUMPDEST PUSH2 0x103 PUSH2 0x16A JUMP JUMPDEST STOP JUMPDEST PUSH1 0x1 PUSH1 0x0 SWAP1 SLOAD SWAP1 PUSH2 0x100 EXP SWAP1 DIV PUSH20 0xFFFFFFFFFFFFFFFFFFFFFFFFFFFFFFFFFFFFFFFF AND DUP2 JUMP JUMPDEST PUSH1 0x0 SLOAD DUP2 JUMP JUMPDEST PUSH1 0x2 PUSH1 0x0 SWAP1 SLOAD SWAP1 PUSH2 0x100 EXP SWAP1 DIV PUSH20 0xFFFFFFFFFFFFFFFFFFFFFFFFFFFFFFFFFFFFFFFF AND DUP2 JUMP JUMPDEST PUSH1 0x2 PUSH1 0x14 SWAP1 SLOAD SWAP1 PUSH2 0x100 EXP SWAP1 DIV PUSH1 0xFF AND DUP2 JUMP JUMPDEST PUSH1 0x0 DUP1 PUSH1 0x3 DUP2 GT ISZERO PUSH2 0x17F JUMPI PUSH2 0x17E PUSH2 0x327 JUMP JUMPDEST JUMPDEST PUSH1 0x2 PUSH1 0x14 SWAP1 SLOAD SWAP1 PUSH2 0x100 EXP SWAP1 DIV PUSH1 0xFF AND PUSH1 0x3 DUP2 GT ISZERO PUSH2 0x1A1 JUMPI PUSH2 0x1A0 PUSH2 0x327 JUMP JUMPDEST JUMPDEST EQ PUSH2 0x1D8 JUMPI PUSH1 0x40 MLOAD PUSH32 0xBAF3F0F700000000000000000000000000000000000000000000000000000000 DUP2 MSTORE PUSH1 0x4 ADD PUSH1 0x40 MLOAD DUP1 SWAP2 SUB SWAP1 REVERT JUMPDEST PUSH1 0x0 SLOAD PUSH1 0x2 PUSH2 0x1E7 SWAP2 SWAP1 PUSH2 0x3E8 JUMP JUMPDEST CALLVALUE EQ PUSH2 0x228 JUMPI PUSH1 0x40 MLOAD PUSH32 0x8C379A000000000000000000000000000000000000000000000000000000000 DUP2 MSTORE PUSH1 0x4 ADD PUSH2 0x21F SWAP1 PUSH2 0x4C5 JUMP JUMPDEST PUSH1 0x40 MLOAD DUP1 SWAP2 SUB SWAP1 REVERT JUMPDEST CALLER PUSH1 0x2 PUSH1 0x0 PUSH2 0x100 EXP DUP2 SLOAD DUP2 PUSH20 0xFFFFFFFFFFFFFFFFFFFFFFFFFFFFFFFFFFFFFFFF MUL NOT AND SWAP1 DUP4 PUSH20 0xFFFFFFFFFFFFFFFFFFFFFFFFFFFFFFFFFFFFFFFF AND MUL OR SWAP1 SSTORE POP PUSH1 0x1 PUSH1 0x2 PUSH1 0x14 PUSH2 0x100 EXP DUP2 SLOAD DUP2 PUSH1 0xFF MUL NOT AND SWAP1 DUP4 PUSH1 0x3 DUP2 GT ISZERO PUSH2 0x28F JUMPI PUSH2 0x28E PUSH2 0x327 JUMP JUMPDEST JUMPDEST MUL OR SWAP1 SSTORE POP POP JUMP JUMPDEST PUSH1 0x0 PUSH20 0xFFFFFFFFFFFFFFFFFFFFFFFFFFFFFFFFFFFFFFFF DUP3 AND SWAP1 POP SWAP2 SWAP1 POP JUMP JUMPDEST PUSH1 0x0 PUSH2 0x2C2 DUP3 PUSH2 0x297 JUMP JUMPDEST SWAP1 POP SWAP2 SWAP1 POP JUMP JUMPDEST PUSH2 0x2D2 DUP2 PUSH2 0x2B7 JUMP JUMPDEST DUP3 MSTORE POP POP JUMP JUMPDEST PUSH1 0x0 PUSH1 0x20 DUP3 ADD SWAP1 POP PUSH2 0x2ED PUSH1 0x0 DUP4 ADD DUP5 PUSH2 0x2C9 JUMP JUMPDEST SWAP3 SWAP2 POP POP JUMP JUMPDEST PUSH1 0x0 DUP2 SWAP1 POP SWAP2 SWAP1 POP JUMP JUMPDEST PUSH2 0x306 DUP2 PUSH2 0x2F3 JUMP JUMPDEST DUP3 MSTORE POP POP JUMP JUMPDEST PUSH1 0x0 PUSH1 0x20 DUP3 ADD SWAP1 POP PUSH2 0x321 PUSH1 0x0 DUP4 ADD DUP5 PUSH2 0x2FD JUMP JUMPDEST SWAP3 SWAP2 POP POP JUMP JUMPDEST PUSH32 0x4E487B7100000000000000000000000000000000000000000000000000000000 PUSH1 0x0 MSTORE PUSH1 0x21 PUSH1 0x4 MSTORE PUSH1 0x24 PUSH1 0x0 REVERT JUMPDEST PUSH1 0x4 DUP2 LT PUSH2 0x367 JUMPI PUSH2 0x366 PUSH2 0x327 JUMP JUMPDEST JUMPDEST POP JUMP JUMPDEST PUSH1 0x0 DUP2 SWAP1 POP PUSH2 0x378 DUP3 PUSH2 0x356 JUMP JUMPDEST SWAP2 SWAP1 POP JUMP JUMPDEST PUSH1 0x0 PUSH2 0x388 DUP3 PUSH2 0x36A JUMP JUMPDEST SWAP1 POP SWAP2 SWAP1 POP JUMP JUMPDEST PUSH2 0x398 DUP2 PUSH2 0x37D JUMP JUMPDEST DUP3 MSTORE POP POP JUMP JUMPDEST PUSH1 0x0 PUSH1 0x20 DUP3 ADD SWAP1 POP PUSH2 0x3B3 PUSH1 0x0 DUP4 ADD DUP5 PUSH2 0x38F JUMP JUMPDEST SWAP3 SWAP2 POP POP JUMP JUMPDEST PUSH32 0x4E487B7100000000000000000000000000000000000000000000000000000000 PUSH1 0x0 MSTORE PUSH1 0x11 PUSH1 0x4 MSTORE PUSH1 0x24 PUSH1 0x0 REVERT JUMPDEST PUSH1 0x0 PUSH2 0x3F3 DUP3 PUSH2 0x2F3 JUMP JUMPDEST SWAP2 POP PUSH2 0x3FE DUP4 PUSH2 0x2F3 JUMP JUMPDEST SWAP3 POP DUP2 PUSH32 0xFFFFFFFFFFFFFFFFFFFFFFFFFFFFFFFFFFFFFFFFFFFFFFFFFFFFFFFFFFFFFFFF DIV DUP4 GT DUP3 ISZERO ISZERO AND ISZERO PUSH2 0x437 JUMPI PUSH2 0x436 PUSH2 0x3B9 JUMP JUMPDEST JUMPDEST DUP3 DUP3 MUL SWAP1 POP SWAP3 SWAP2 POP POP JUMP JUMPDEST PUSH1 0x0 DUP3 DUP3 MSTORE PUSH1 0x20 DUP3 ADD SWAP1 POP SWAP3 SWAP2 POP POP JUMP JUMPDEST PUSH32 0x506C656173652073656E6420696E203278207468652070757263686173652061 PUSH1 0x0 DUP3 ADD MSTORE PUSH32 0x6D6F756E74200000000000000000000000000000000000000000000000000000 PUSH1 0x20 DUP3 ADD MSTORE POP JUMP JUMPDEST PUSH1 0x0 PUSH2 0x4AF PUSH1 0x26 DUP4 PUSH2 0x442 JUMP JUMPDEST SWAP2 POP PUSH2 0x4BA DUP3 PUSH2 0x453 JUMP JUMPDEST PUSH1 0x40 DUP3 ADD SWAP1 POP SWAP2 SWAP1 POP JUMP JUMPDEST PUSH1 0x0 PUSH1 0x20 DUP3 ADD SWAP1 POP DUP2 DUP2 SUB PUSH1 0x0 DUP4 ADD MSTORE PUSH2 0x4DE DUP2 PUSH2 0x4A2 JUMP JUMPDEST SWAP1 POP SWAP2 SWAP1 POP JUMP INVALID LOG2 PUSH5 0x6970667358 0x22 SLT KECCAK256 PUSH18 0x6422BF6A7B7BF3B3B6EEBD88B3301F91CEF1 CODECOPY 0xF7 CHAINID 0xC2 JUMP CREATE PUSH1 0xE7 SAR DUP16 DUP14 0xEE 0x4E PUSH5 0x736F6C6343 STOP ADDMOD 0xF STOP CALLER "
				},
				"gasEstimates": {
					"creation": {
						"codeDepositCost": "261400",
						"executionCost": "24542",
						"totalCost": "285942"
					},
					"external": {
						"buyer()": "2536",
						"confirmPurchase()": "infinite",
						"seller()": "2492",
						"state()": "2654",
						"value()": "2429"
					}
				},
				"methodIdentifiers": {
					"buyer()": "7150d8ae",
					"confirmPurchase()": "d6960697",
					"seller()": "08551a53",
					"state()": "c19d93fb",
					"value()": "3fa4f245"
				}
			},
			"storageLayout": {
				"storage": [
					{
						"astId": 3,
						"contract": "contracts/1_remote smart contract .sol:PurchaseAggreement",
						"label": "value",
						"offset": 0,
						"slot": "0",
						"type": "t_uint256"
					},
					{
						"astId": 5,
						"contract": "contracts/1_remote smart contract .sol:PurchaseAggreement",
						"label": "seller",
						"offset": 0,
						"slot": "1",
						"type": "t_address_payable"
					},
					{
						"astId": 7,
						"contract": "contracts/1_remote smart contract .sol:PurchaseAggreement",
						"label": "buyer",
						"offset": 0,
						"slot": "2",
						"type": "t_address_payable"
					},
					{
						"astId": 15,
						"contract": "contracts/1_remote smart contract .sol:PurchaseAggreement",
						"label": "state",
						"offset": 20,
						"slot": "2",
						"type": "t_enum(State)12"
					}
				],
				"types": {
					"t_address_payable": {
						"encoding": "inplace",
						"label": "address payable",
						"numberOfBytes": "20"
					},
					"t_enum(State)12": {
						"encoding": "inplace",
						"label": "enum PurchaseAggreement.State",
						"numberOfBytes": "1"
					},
					"t_uint256": {
						"encoding": "inplace",
						"label": "uint256",
						"numberOfBytes": "32"
					}
				}
			},
			"userdoc": {
				"kind": "user",
				"methods": {},
				"version": 1
			}
		}
	}
}